:060000000A128A11FC2F18
:100F74008316031388010230850006309F00003079
:100F8400F4000230F500013083129F000330F100B9
:100F94009730F000F00BCC2FF10BCC2FD12F831214
:100FA40003131F151F19D72FD82FD42F1E08F30092
:100FB400831603131E08F2007308803AF0007508C4
:100FC400803A7002031DE82F74087202031CEB2F91
:100FD400EC2FF22F83120313851CF12FF22FF72F1E
:100FE4000730831203138800C52F8801C52F0A1206
:0C0FF4008A11002883010A128A11BA2F0A
:02400E00713F00
:00000001FF
